DOWNLOAD.COM 1501A.COM
U0
:020000040000FA
:20000000C303011100002158017EA7280E23FE29C2170113C309011BC309017ACD3C015C67
:200020000E02CD05005D0E02CD05007BCD3C015C0E02CD05005D0E02CD0500C947E6F00FA8
:200040000F0F0FCD4F016778E60FCD4F016FC9FE0A3802C607C630C928292828282829291C
:20006000292828292829282928282828282928282828292928282928282928282828282877
:20008000282928282928282828292929292828282928282828292929282828292928282953
:2000A000282828292829282928292828282829292828282828282828292929292829282934
:2000C000282829282829282829292828282828282928292829282828292928282828282817
:2000E0002928292929292928292828292928282828292928282929282828282828282929F1
:200100002829292929282829282929292928292929292928292829292829282929282828CB
:200120002928292828282928292829282928282928282828282828282829282928292928B4
:20014000282829282928282828282829282828282929282828292928282929292829282894
:20016000282828292828282828282828282929282928282829282929282829292828282975
:20018000292928292928282828282928292928282828282828282828282829282928282856
:2001A000282828292828292929282929282828282928282929292829292828282928282931
:2001C00028292928292928292928282928282828292928282929282929282928292828290F
:2001E0002828292828282929292828282929292929282828282829282828282929292929F0
:200200002828282828292828292828292829292829292829282828282928282828282929D3
:200220002828282828292828282829282928282929282928292829282929282828292828B3
:20024000282828282829282828292829292928292828282929292829282829282928282892
:20026000292929292828282829282828282929292828282928282829282829292928282871
:20028000282928292828292828292829282929292929282928292828282829282828282950
:2002A00029282929292929292828282928282828292928292828292828292928282829282F
:2002C00029292929282828282829292929282829282829282829282929282928282829280F
:2002E0002929292928282828292828282928282929282928292828282928282829292828F1
:200300002928292828282929282829292829292928292929282828292828292928292929CB
:200320002829292828282828282828292828292829282829282829292829292929292929AE
:20034000292828292828282828282829292828282828292928282829292829292828292892
:2003600029292929292829282829292828292829292829282929282828292928282929296A
:20038000292928282929292828292828282929292829282829282828282828282928292850
:2003A000292829282828282828282828292828292828292928282829282928282928292932
:2003C00029282829292829282929282928282829292929282929292829282929282828280C
:2003E0002929292828292928292828292928292929282928282829282828292828292829ED
:200400002829292828292928292829282928282829292829292929282828292829282829CC
:200420002829282828292828292928292829282929282828282928282928292929292928AD
:20044000282929292928282928282928292928292929282928292929292929292829292986
:2004600029292828282828282829292929282929292928282928282929282929282829286C
:20048000292929292929282829292928292929292929292829282828292929292928292944
:2004A00029292928282928282928282829282929282929282829282929292929282828282C
:2004C00029292829292928292928292928292928282828292828292829292928282929280A
:2004E0002928282929282829292828282828282829282929292929282828292828292929ED
:200500002929292928282929292829292828282829282928282929292829282929282928C9
:200520002928292829292929292929292929292929292828292928282929292828292929A3
:2005400028282829282829292828292829292828292928292928282928292928282929288C
:20056000292829282829282929292928292829282929292828292928292928292929282967
:20058000292829292828292928282829292929292929292828292929292828292929292945
:2005A000292829292929292828282929282829282828282929292929282829292928292829
:2005C00028282928282929292928282928292928282828282829292928292829292829280C
:2005E0002929292929282929292929282929292829292828292828292829282929292829E5
:200600002929292929292828282929292929292929292929282928282829292928282829C4
:200620002828292928282829292829282928282928292929282928282929292929282928A9
:20064000292828292929282929292828282829292929282829292829282828292928282989
:20066000292828292829292829282929282929292929292929282929292928292828282965
:20068000292929282929292828292929282928292929282828282828282829292928292948
:2006A00028282928292929282829282928282929292829282829282828292829292829292A
:2006C000292929292928282828292829282928292929292828292928292929282928292906
:2006E0002828292829292928292829292929292929292928282929292928292929282928E4
:200700002929292929292928292929282928292929292829282829292828292929292929C1
:200720002829282829292829282928282928292929292928292928282829292929292829A6
:20074000292929292828292828282828282929292929292929292829292929282929282984
:20076000282829292829282929292929282829292929282929282928292829292829282965
:20078000282929282928282929292929282929292829292929292929292928292929292841
:2007A000282829292928292929282929292829292929282928292928292829282929292923
:2007C000282929292928282928282829292829282828292929282929292929292829292806
:2007E0002928282929282828292929292929292929292929282929282928292928282929E3
:200800002829292829292828292929282829292928292929282929282829282829292829C5
:200820002928292829292829282928282929292929282829282829292929292929292828A4
:20084000292929292829292828292929292929292928292928292829282829292829292882
:20086000292929292828292929292929282929292829282829282929282928282929292863
:2008800029292829292929292928292829282829292928292929292928292929292929293F
:2008A00029292928292929292928292929292929292829292829282929282928292929291F
:2008C0002928292829292929282929292929292929292929292829282929292929282928FF
:2008E0002928282828292929282928292828292928292929292928282829292929292828E6
:200900002929292828292928292929292828292928292929292929292828292929282929C0
:2009200029292928282929282929292929292829292928282928292929292929292929299E
:20094000292929292829292929292929292929282928282829282929282829282929292980
:20096000292929292828282929292929282829292828292929292829282829282929282963
:20098000292929282929282929282829282928292829292929282929292929292928292940
:2009A00029292929282929282928292829292929292929292929292928292829282829291F
:2009C000292929282928292928292929282828292829292828292929292928292828292903
:2009E0002929292929292929292829282929282929282828282929282829292929292829E1
:200A00002928292929282929292829292929292929282929292929292928282929292929BC
:200A20002829292929292829282829292929282829292929282829292928292928292829A1
:200A4000282829282929292829292928282928292929292929292929282929292828292980
:200A6000292829292828292829282829282829282929282928292929282929292929292962
:200A8000292928282929292929292828282928292828292929282929282929292929292841
:200AA000292929282929282829282929282928292929282929292928292828292829282922
:200AC000282929292828282929282929292928292928292828292829292928292929292901
:200AE0002929292928282929292828292929292829292929292828292828292829292828E2
:200B00002929292929282928292928292928292929282928292929282929292929292929BC
:200B2000292929292829292829292929292929282929292929292929292829292929292999
:200B400028292929292928292928282928292929292828292928292929282929282929297F
:200B6000292929282928292828292829282929282829282929292928292829292928282863
:200B800028292929282829282928292929292928292929292928292929292928282829293F
:200BA00029292829282828282828282928292929292929292829292929292929292929291F
:200BC0002928282828292929292929292929292929292828292928292929292929282929FD
:200BE0002828292929292929292828292929282828292929282929292928292828292828E2
:200C00002829292928292929282929292929292929292929282929282929292829282829BC
:200C200028292929292928292929292829292828292928292828292929282929292829299E
:200C400028282929292829292929292828292829292928292829282829292929292928297F
:200C6000292928282929282829282829282929292828292829282929292929292828282863
:200C8000292929292929292829292929292929292929292929282829292828292929292939
:200CA000282928292928292928292829282828292829292928292929292929282829292920
:200CC0002929282929292929292929282928292829292929292929292928292929292829FA
:200CE0002828282829282929292828292929292929282828282929282929292929292828E2
:200D00002829292928292828292929282829292929292828292829292929282829292928BF
:200D200029292929292928292929292928282929282829292929282928282829292928289E
:200D400029292829292929282928292929282929292929292929292829292928282928297B
:200D6000282928282928292829282829292928292928282929282928292928282828292963
:200D800029282829292929292929292929282828282928292929292829282929292929293C
:200DA000292929282928282929282829292928292828282828292928282929282829282923
:200DC000292929282929292828282829292829282928292929282828292929282829292900
:200DE0002829292829292929282929292928282929292829292829282929282929282829DE
:200E00002828292928292928292829282928282929292928292928282929292928282929BF
:200E200029292828292928292929282929292828292828282929292929292929292829299C
:200E400028282929292929292928292928282928292929282928292929282928282928287F
:200E6000292829292929282928292828292828282928282828282828292929282829292963
:200E8000292829282928292929282929282929292828282928292828292929282929282840
:200EA00028292828292828292929282829282929292929282928292929292829292928291E
:200EC0002829292929292929292829282928282829282929282829292929282929292828FE
:200EE0002929292828292928282929292829292828292828292929292829282929292929DD
:200F00002929282828282928282828292829292928292828292828292928292928282829C3
:200F200028292929282929292829292928292929282928282928292829282829292928289E
:200F400028292829292829282829292929282928292929282828282929282928292829297F
:200F6000282829292829282828292829282928292828292828292928282928292929282962
:200F800028282828282829282929292928282829292929292928282928292829292929293F
:200FA000282828282928282929292928292929282828292828282928282929282928282923
:200FC000282828292929292828282928292928292828292929282828282928292928292802
:200FE0002928282929292828292928282828292828282928292928292828282929282928E3
:201000002929282828282928292929282828292828282929282829292928282928292928C1
:201020002829282928292929282828292929282829292828292828282928292829292828A1
:2010400028292929282829292929282829292828292928282929292928282928292929297C
:20106000282828282828292828292828282828282928292928282828282928282928292967
:20108000282829292828292829282828282929282828292828282829282928282828292846
:2010A000292828282828282829292929282929282829282828282828282928282929292824
:2010C000292929282928292828282928282829292929292829282829282928282928282801
:2010E0002928292929292929292828282828282928282828282829292829282928292828E2
:201100002929282929292929292929282929292828282928292828292929292828292928BA
:2011200028292829282928292929292929282829282828282829292929292929292829289C
:20114000292828282829282829282829282829282829282929282928292829282828282884
:20116000282828282829282928292928292828292929282828292829282928292829282862
:20118000282828282828292829292829282828292928292929282828282828282928282944
:2011A000282829282829282929282828282928282828282828282928282828292928282827
:2011C000282828282828282929282829292829292829292928282829282829292928282802
:2011E0002829282928292928282929282829282829282928282828292828292928292929E0
:201200002829292929282829292828282828282829292828292829282929282928292828C0
:201220002828292828282829292828292828282829292828282828282828292828282828A7
:2012400028282828282929292828292928282928282928282929292929282828292929287F
:2012600029282829292829292829292828282928282928282829282929292828282928295F
:20128000282828292828292928282929282829282828292928282828292928282828292843
:2012A000292829282828282828282928292828292928282828282929282929292929282821
:2012C000292928282829282829282828292929292828282828282928282928292829292801
:2012E0002929282828292928292929292828282929282828292828282928292828282828E1
:201300002828292928282828292829282829282929282929282829282829292928282928BF
:201320002829292928292928292928292828282828282828292828282829282829292829A0
:20134000282928282829292828282928282928292828282928282928292828282828282884
:20136000282828282829292828282929282828282828282929282828292828282828292865
:20138000282928282828282928282828282828282929282928282829292929292829292841
:2013A000292828282928282828282928282928282828292828282928292929292828292921
:2013C000282929282828282928282828292928282828282828292828282828282828282807
:2013E0002928292828292929292828292828282828282928282828282928292929292828E0
:201400002829282828292828282928282928292828282829292828282828282828282828C5
:201420002828292828282829292828292828282828282929292828292829282829282928A1
:20144000292829282928292828282929282828282828282829292828282828282929292980
:20146000292928292928292828292829282829282829282828282928292828282828282960
:20148000292828292828282928282829282828282928292828282928282828282929282942
:2014A00029292829282828282829292828292929292829282929282828282929282829291C
:2014C000282829282928282829282828282928292828282828282828282828292829282805
:2014E0002928292928292928282828282828282828292928282828282929292829282928E0
:201500002828282829292828292828282828292828282829292829292828282828282828C3
:201520002828282829282828282829292929282829292828292828282829282828282928A1
:20154000282829292828282828282928282829282928282928282928292828282828282883
:20156000292828282828292828282928282928282829282829282828282828282929292961
:2015800029282928292828282828282928282829282829282829292829292928282929283E
:2015A000282828282828282928282828282928292928282928282829282828292828292922
:2015C0002928292929292828292928282829292929292828282828282828292829282928FC
:2015E0002929282829292928282928292828282928292928292828282928282829282928DD
:201600002928282928282928292929282829282929282829292828282828282928282828BE
:201620002828282828282828292828282928282828292828282828282828292829282828A5
:20164000282828282928282828282829282829282828292828282828282929282828282884
:2016600028282929292828282828292928282829282928282829292828282829292829285E
:20168000282828282829282928282828282829282828292828292828282828282828292844
:2016A00028282828282928282829282828292828282929282829292828282929282829291F
:2016C0002928292829292928282928292828292828292829282828282828282829282828FF
:2016E0002829282828282929282928282828282829282828282828282928292928282828E2
:201700002829292829282828292828282928282928292829292828292929282828282829BC
:201720002829282828282828282928282829282829282829282828282829282828292828A2
:20174000282929282828282828282928282928282929282828282828282928282828282882
:2017600028282828282928282829292829292928292828292828292828282828282928295E
:2017800028292929282828292929292829282829282828282828282828282828282828293F
:2017A000282828282928282828282928282829292828282928282829282828282928292821
:2017C0002829282828282928282829292828292829282929292928292828292828292828FC
:2017E0002828282829282928282928282928282828282928282828282829292829282829E0
:201800002828292929282828282828292829282828282928292828292928282828282828BF
:201820002828282828282828292928282829292828282828282828282828282929282928A1
:2018400029282928282929282928282928282928282828282828282828292928282828297E
:2018600029292828292829282929282829282828282829282829292828282828282928295C
:20188000292828292928282828282828282829292829282828282829282828282828282940
:2018A00029282829282828292828292928282828292828282828292929282828282828281F
:2018C0002828282928292929282828282829282829292829282928292828292928282928FB
:2018E0002828292928282829282929292829282828282929282828282828292928282828DD
:201900002828282928292929282828282828282828282928282828282828292929292828BE
:2019200028282828282829282828292828292828292929292829292828292828292929289A
:20194000292828282828282928292928282929292829282829282829292828282829292979
:20196000292928292928292829292929282828282828292929282929282928282829282857
:2019800029292929292828282928292829282828282828282929292829282928282828283A
:2019A00028282828292928282829282829282828282928282928282829292828282928291D
:2019C0002928282928282828282929282829282828282928292829282829282829282929FB
:2019E0002928292928292928282828282828282828282929282929282828292929282928DA
:201A00002828292928282929282829292929282929282928282928292828292929292829B4
:201A2000292828292929282828282928282928292828282829282828282929292928292899
:201A4000282828292828292928292828282828282829292829292928292929282928282879
:201A6000282828282928282928282828282829282929292928292929292928292928292857
:201A800029282828282928282828282829292828282928292828292828282928282829283D
:201AA000282928282928282929292928282928292829282928282829282829292828282819
:201AC0002928282829292928282828282929292829292828292929292829292828292929F4
:201AE0002829282928292829292829292928282828292829282929282928282829292929D5
:201B00002828292928282928292829282928282928292928282829282829282928282828B9
:201B2000282929292928282829282828292828292928282829282829282828292928292898
:201B4000282928292828282829282929282928292829292828282929292828282929282877
:201B6000282829282928282929292928292829292928282828292828282929282928282857
:201B8000282828292829292828292928282829292829282929282929282828282828282938
:111BA0002828292828282828282929292828292800AF
:00000001FF
